{
  "address": "0x0e70B194731d11a82D5cA76F6c8C43267edac6D6",
  "abi": [
    {
      "inputs": [
        {
          "internalType": "address",
          "name": "VRFCoordinator",
          "type": "address"
        },
        {
          "internalType": "bytes32",
          "name": "keyHash",
          "type": "bytes32"
        },
        {
          "internalType": "uint64",
          "name": "subscriptionId",
          "type": "uint64"
        },
        {
          "internalType": "uint16",
          "name": "callbackGasLimit",
          "type": "uint16"
        }
      ],
      "stateMutability": "nonpayable",
      "type": "constructor"
    },
    {
      "inputs": [
        {
          "internalType": "address",
          "name": "have",
          "type": "address"
        },
        {
          "internalType": "address",
          "name": "want",
          "type": "address"
        }
      ],
      "name": "OnlyCoordinatorCanFulfill",
      "type": "error"
    },
    {
      "anonymous": false,
      "inputs": [
        {
          "indexed": true,
          "internalType": "uint256",
          "name": "RequestId",
          "type": "uint256"
        }
      ],
      "name": "RequestId",
      "type": "event"
    },
    {
      "inputs": [],
      "name": "RandomNumber",
      "outputs": [
        {
          "internalType": "uint256",
          "name": "",
          "type": "uint256"
        }
      ],
      "stateMutability": "view",
      "type": "function"
    },
    {
      "inputs": [],
      "name": "RequestRandomProduct",
      "outputs": [],
      "stateMutability": "nonpayable",
      "type": "function"
    },
    {
      "inputs": [
        {
          "internalType": "uint256",
          "name": "requestId",
          "type": "uint256"
        },
        {
          "internalType": "uint256[]",
          "name": "randomWords",
          "type": "uint256[]"
        }
      ],
      "name": "rawFulfillRandomWords",
      "outputs": [],
      "stateMutability": "nonpayable",
      "type": "function"
    },
    {
      "inputs": [
        {
          "internalType": "string",
          "name": "ITEM_URL",
          "type": "string"
        },
        {
          "internalType": "uint256",
          "name": "value",
          "type": "uint256"
        }
      ],
      "name": "updateItem",
      "outputs": [],
      "stateMutability": "nonpayable",
      "type": "function"
    }
  ],
  "transactionHash": "0x0a69d15b5e7acc02e91f5cb4d67545ea9144e3d214f96dfc9fc51f99ffccbcbd",
  "args": [
    "0x2Ca8E0C643bDe4C2E08ab1fA0da3401AdAD7734D",
    "0x79d3d8832d904592c0bf9818b621522c988bb8b0c05cdc3b15aea1b6e8db0c15",
    "9364",
    "50000"
  ],
  "numDeployments": 4,
  "solcInputHash": "e4de23c87c32a99a5185b1ba79813158",
  "bytecode": "0x6101406040523480156200001257600080fd5b5060405162000ed838038062000ed8833981810160405281019062000038919062000189565b838073ffffffffffffffffffffffffffffffffffffffff1660808173ffffffffffffffffffffffffffffffffffffffff1660601b81525050503373ffffffffffffffffffffffffffffffffffffffff1660a08173ffffffffffffffffffffffffffffffffffffffff1660601b815250508260c081815250508167ffffffffffffffff1660e08167ffffffffffffffff1660c01b815250508061ffff1663ffffffff166101008163ffffffff1660e01b815250508373ffffffffffffffffffffffffffffffffffffffff166101208173ffffffffffffffffffffffffffffffffffffffff1660601b8152505050505050620002c8565b6000815190506200013e8162000260565b92915050565b60008151905062000155816200027a565b92915050565b6000815190506200016c8162000294565b92915050565b6000815190506200018381620002ae565b92915050565b60008060008060808587031215620001a657620001a56200025b565b5b6000620001b6878288016200012d565b9450506020620001c98782880162000144565b9350506040620001dc8782880162000172565b9250506060620001ef878288016200015b565b91505092959194509250565b6000620002088262000227565b9050919050565b6000819050919050565b600061ffff82169050919050565b600073ffffffffffffffffffffffffffffffffffffffff82169050919050565b600067ffffffffffffffff82169050919050565b600080fd5b6200026b81620001fb565b81146200027757600080fd5b50565b62000285816200020f565b81146200029157600080fd5b50565b6200029f8162000219565b8114620002ab57600080fd5b50565b620002b98162000247565b8114620002c557600080fd5b50565b60805160601c60a05160601c60c05160e05160c01c6101005160e01c6101205160601c610bab6200032d6000396000610175015260006101f5015260006101d2015260006101b1015260006102e301526000818160b301526101070152610bab6000f3fe608060405234801561001057600080fd5b506004361061004c5760003560e01c80631fe543e3146100515780638ccdb4bf1461006d5780638e3957d9146100775780639e5edfc114610095575b600080fd5b61006b60048036038101906100669190610711565b6100b1565b005b610075610171565b005b61007f6102c1565b60405161008c9190610886565b60405180910390f35b6100af60048036038101906100aa9190610688565b6102ca565b005b7f000000000000000000000000000000000000000000000000000000000000000073ffffffffffffffffffffffffffffffffffffffff163373ffffffffffffffffffffffffffffffffffffffff161461016357337f00000000000000000000000000000000000000000000000000000000000000006040517f1cf993f400000000000000000000000000000000000000000000000000000000815260040161015a9291906107ea565b60405180910390fd5b61016d82826103c5565b5050565b60007f000000000000000000000000000000000000000000000000000000000000000073ffffffffffffffffffffffffffffffffffffffff16635d3b1d307f00000000000000000000000000000000000000000000000000000000000000007f000000000000000000000000000000000000000000000000000000000000000060037f000000000000000000000000000000000000000000000000000000000000000060026040518663ffffffff1660e01b8152600401610236959493929190610813565b602060405180830381600087803b15801561025057600080fd5b505af1158015610264573d6000803e3d6000fd5b505050506040513d601f19601f8201168201806040525081019061028891906106e4565b905080600081905550807f3554fe1ee254b86916f1f06dddd374934dd5c2bfe18b0150f0f124268baaf27560405160405180910390a250565b60008054905090565b3373ffffffffffffffffffffffffffffffffffffffff167f000000000000000000000000000000000000000000000000000000000000000073ffffffffffffffffffffffffffffffffffffffff1614610358576040517f08c379a000000000000000000000000000000000000000000000000000000000815260040161034f90610866565b60405180910390fd5b6001604051806040016040528084815260200183815250908060018154018082558091505060019003906000526020600020906002020160009091909190915060008201518160000190805190602001906103b49291906104ad565b506020820151816001015550505050565b6000600180549050826000815181106103e1576103e0610aad565b5b60200260200101516103f39190610a1e565b905060006001828154811061040b5761040a610aad565b5b90600052602060002090600202016000018054610427906109bb565b80601f0160208091040260200160405190810160405280929190818152602001828054610453906109bb565b80156104a05780601f10610475576101008083540402835291602001916104a0565b820191906000526020600020905b81548152906001019060200180831161048357829003601f168201915b5050505050905050505050565b8280546104b9906109bb565b90600052602060002090601f0160209004810192826104db5760008555610522565b82601f106104f457805160ff1916838001178555610522565b82800160010185558215610522579182015b82811115610521578251825591602001919060010190610506565b5b50905061052f9190610533565b5090565b5b8082111561054c576000816000905550600101610534565b5090565b600061056361055e846108c6565b6108a1565b9050808382526020820190508285602086028201111561058657610585610b10565b5b60005b858110156105b6578161059c888261065e565b845260208401935060208301925050600181019050610589565b5050509392505050565b60006105d36105ce846108f2565b6108a1565b9050828152602081018484840111156105ef576105ee610b15565b5b6105fa8482856109ac565b509392505050565b600082601f83011261061757610616610b0b565b5b8135610627848260208601610550565b91505092915050565b600082601f83011261064557610644610b0b565b5b81356106558482602086016105c0565b91505092915050565b60008135905061066d81610b5e565b92915050565b60008151905061068281610b5e565b92915050565b6000806040838503121561069f5761069e610b1f565b5b600083013567ffffffffffffffff8111156106bd576106bc610b1a565b5b6106c985828601610630565b92505060206106da8582860161065e565b9150509250929050565b6000602082840312156106fa576106f9610b1f565b5b600061070884828501610673565b91505092915050565b6000806040838503121561072857610727610b1f565b5b60006107368582860161065e565b925050602083013567ffffffffffffffff81111561075757610756610b1a565b5b61076385828601610602565b9150509250929050565b61077681610934565b82525050565b61078581610946565b82525050565b6000610798601b83610923565b91506107a382610b35565b602082019050919050565b6107b781610950565b82525050565b6107c68161097e565b82525050565b6107d581610988565b82525050565b6107e481610998565b82525050565b60006040820190506107ff600083018561076d565b61080c602083018461076d565b9392505050565b600060a082019050610828600083018861077c565b61083560208301876107db565b61084260408301866107ae565b61084f60608301856107cc565b61085c60808301846107cc565b9695505050505050565b6000602082019050818103600083015261087f8161078b565b9050919050565b600060208201905061089b60008301846107bd565b92915050565b60006108ab6108bc565b90506108b782826109ed565b919050565b6000604051905090565b600067ffffffffffffffff8211156108e1576108e0610adc565b5b602082029050602081019050919050565b600067ffffffffffffffff82111561090d5761090c610adc565b5b61091682610b24565b9050602081019050919050565b600082825260208201905092915050565b600061093f8261095e565b9050919050565b6000819050919050565b600061ffff82169050919050565b600073ffffffffffffffffffffffffffffffffffffffff82169050919050565b6000819050919050565b600063ffffffff82169050919050565b600067ffffffffffffffff82169050919050565b82818337600083830152505050565b600060028204905060018216806109d357607f821691505b602082108114156109e7576109e6610a7e565b5b50919050565b6109f682610b24565b810181811067ffffffffffffffff82111715610a1557610a14610adc565b5b80604052505050565b6000610a298261097e565b9150610a348361097e565b925082610a4457610a43610a4f565b5b828206905092915050565b7f4e487b7100000000000000000000000000000000000000000000000000000000600052601260045260246000fd5b7f4e487b7100000000000000000000000000000000000000000000000000000000600052602260045260246000fd5b7f4e487b7100000000000000000000000000000000000000000000000000000000600052603260045260246000fd5b7f4e487b7100000000000000000000000000000000000000000000000000000000600052604160045260246000fd5b600080fd5b600080fd5b600080fd5b600080fd5b600080fd5b6000601f19601f8301169050919050565b7f4f6e6c7920436f6e7472616374204f776e657220416c6c6f7765640000000000600082015250565b610b678161097e565b8114610b7257600080fd5b5056fea2646970667358221220f539d46461652b740ccae584b670d9ae0a9f8bf5286180ab4430895f031a62b164736f6c63430008070033",
  "devdoc": {
    "kind": "dev",
    "methods": {},
    "version": 1
  },
  "userdoc": {
    "kind": "user",
    "methods": {},
    "version": 1
  },
  "storageLayout": {
    "storage": [
      {
        "astId": 374,
        "contract": "contracts/Auction.sol:Auction",
        "label": "randomNumber",
        "offset": 0,
        "slot": "0",
        "type": "t_uint256"
      },
      {
        "astId": 390,
        "contract": "contracts/Auction.sol:Auction",
        "label": "productItem",
        "offset": 0,
        "slot": "1",
        "type": "t_array(t_struct(ProductItems)386_storage)dyn_storage"
      }
    ],
    "types": {
      "t_array(t_struct(ProductItems)386_storage)dyn_storage": {
        "base": "t_struct(ProductItems)386_storage",
        "encoding": "dynamic_array",
        "label": "struct Auction.ProductItems[]",
        "numberOfBytes": "32"
      },
      "t_string_storage": {
        "encoding": "bytes",
        "label": "string",
        "numberOfBytes": "32"
      },
      "t_struct(ProductItems)386_storage": {
        "encoding": "inplace",
        "label": "struct Auction.ProductItems",
        "members": [
          {
            "astId": 383,
            "contract": "contracts/Auction.sol:Auction",
            "label": "URL_PRODUCT",
            "offset": 0,
            "slot": "0",
            "type": "t_string_storage"
          },
          {
            "astId": 385,
            "contract": "contracts/Auction.sol:Auction",
            "label": "Base_Value",
            "offset": 0,
            "slot": "1",
            "type": "t_uint256"
          }
        ],
        "numberOfBytes": "64"
      },
      "t_uint256": {
        "encoding": "inplace",
        "label": "uint256",
        "numberOfBytes": "32"
      }
    }
  }
}